{
  "contractName": "Insureum",
  "abi": [
    {
      "constant": true,
      "inputs": [],
      "name": "hospital",
      "outputs": [
        {
          "name": "",
          "type": "address"
        }
      ],
      "payable": false,
      "stateMutability": "view",
      "type": "function"
    },
    {
      "inputs": [],
      "payable": false,
      "stateMutability": "nonpayable",
      "type": "constructor"
    },
    {
      "constant": false,
      "inputs": [],
      "name": "PayInPremium",
      "outputs": [
        {
          "name": "",
          "type": "uint256"
        }
      ],
      "payable": true,
      "stateMutability": "payable",
      "type": "function"
    },
    {
      "constant": false,
      "inputs": [
        {
          "name": "withdrawAmount",
          "type": "uint256"
        }
      ],
      "name": "claim",
      "outputs": [],
      "payable": false,
      "stateMutability": "nonpayable",
      "type": "function"
    },
    {
      "constant": true,
      "inputs": [],
      "name": "getBalanceOfContract",
      "outputs": [
        {
          "name": "",
          "type": "uint256"
        }
      ],
      "payable": false,
      "stateMutability": "view",
      "type": "function"
    },
    {
      "constant": true,
      "inputs": [],
      "name": "getBalanceOfUser",
      "outputs": [
        {
          "name": "",
          "type": "uint256"
        }
      ],
      "payable": false,
      "stateMutability": "view",
      "type": "function"
    }
  ],
  "bytecode": "0x608060405234801561001057600080fd5b5033600160006101000a81548173ffffffffffffffffffffffffffffffffffffffff021916908373ffffffffffffffffffffffffffffffffffffffff1602179055506103e6806100616000396000f30060806040526004361061006d576000357c0100000000000000000000000000000000000000000000000000000000900463ffffffff16806317d0d7bb146100725780632296888514610090578063379607f5146100bb57806379982de4146100e8578063aa2fedde14610113575b600080fd5b61007a61016a565b6040518082815260200191505060405180910390f35b34801561009c57600080fd5b506100a5610289565b6040518082815260200191505060405180910390f35b3480156100c757600080fd5b506100e6600480360381019080803590602001909291905050506102a8565b005b3480156100f457600080fd5b506100fd61034e565b6040518082815260200191505060405180910390f35b34801561011f57600080fd5b50610128610394565b604051808273ffffffffffffffffffffffffffffffffffffffff1673ffffffffffffffffffffffffffffffffffffffff16815260200191505060405180910390f35b60008060003373ffffffffffffffffffffffffffffffffffffffff1673ffffffffffffffffffffffffffffffffffffffff16815260200190815260200160002054346000803373ffffffffffffffffffffffffffffffffffffffff1673ffffffffffffffffffffffffffffffffffffffff1681526020019081526020016000205401101515156101f957600080fd5b346000803373ffffffffffffffffffffffffffffffffffffffff1673ffffffffffffffffffffffffffffffffffffffff168152602001908152602001600020600082825401925050819055506000803373ffffffffffffffffffffffffffffffffffffffff1673ffffffffffffffffffffffffffffffffffffffff16815260200190815260200160002054905090565b60003073ffffffffffffffffffffffffffffffffffffffff1631905090565b600160009054906101000a900473ffffffffffffffffffffffffffffffffffffffff1673ffffffffffffffffffffffffffffffffffffffff163373ffffffffffffffffffffffffffffffffffffffff1614151561030457600080fd5b3373ffffffffffffffffffffffffffffffffffffffff166108fc829081150290604051600060405180830381858888f1935050505015801561034a573d6000803e3d6000fd5b5050565b60008060003373ffffffffffffffffffffffffffffffffffffffff1673ffffffffffffffffffffffffffffffffffffffff16815260200190815260200160002054905090565b600160009054906101000a900473ffffffffffffffffffffffffffffffffffffffff16815600a165627a7a723058204b5bda8cf290658de693785a8ee160b501b5de0bd129817e8b9de7e0860d92100029",
  "source": "pragma solidity ^0.4.17;\r\n\r\ncontract Insureum {\r\n\r\n    mapping (address => uint) private insurancePlan;\r\n\r\n    address public hospital;\r\n\r\n    constructor () public {\r\n        hospital = msg.sender;\r\n    }\r\n\r\n    function PayInPremium() public payable returns (uint256) {\r\n        // Here we are making sure that there isn't an overflow issue\r\n        require((insurancePlan[msg.sender] + msg.value) >= insurancePlan[msg.sender]);\r\n        insurancePlan[msg.sender] += msg.value;\r\n        return insurancePlan[msg.sender];\r\n    }\r\n\r\n    function claim(uint withdrawAmount) public {\r\n        require(msg.sender == hospital);\r\n        msg.sender.transfer(withdrawAmount);\r\n    }\r\n\r\n    function getBalanceOfContract() public constant returns (uint256) {\r\n         return address(this).balance;\r\n     }\r\n\r\n    function getBalanceOfUser() public constant returns (uint256) {\r\n        return insurancePlan[msg.sender];\r\n    }\r\n}",
  "sourcePath": "C:\\Users\\sharm\\Documents\\insureum\\contracts\\Insureum.sol",
  "compiler": {
    "name": "solc",
    "version": "0.4.24+commit.e67f0147.Emscripten.clang"
  },
  "schemaVersion": "2.0.1",
  "updatedAt": "2018-07-29T18:37:13.069Z"
}