{
  "contractName": "Insureum",
  "abi": [
    {
      "constant": true,
      "inputs": [],
      "name": "hospital",
      "outputs": [
        {
          "name": "",
          "type": "address"
        }
      ],
      "payable": false,
      "stateMutability": "view",
      "type": "function"
    },
    {
      "inputs": [],
      "payable": false,
      "stateMutability": "nonpayable",
      "type": "constructor"
    },
    {
      "constant": false,
      "inputs": [],
      "name": "planOneTwoThree",
      "outputs": [
        {
          "name": "",
          "type": "uint256"
        }
      ],
      "payable": true,
      "stateMutability": "payable",
      "type": "function"
    },
    {
      "constant": false,
      "inputs": [
        {
          "name": "withdrawAmount",
          "type": "uint256"
        }
      ],
      "name": "claim",
      "outputs": [],
      "payable": true,
      "stateMutability": "payable",
      "type": "function"
    },
    {
      "constant": true,
      "inputs": [],
      "name": "getBalance",
      "outputs": [
        {
          "name": "",
          "type": "uint256"
        }
      ],
      "payable": false,
      "stateMutability": "view",
      "type": "function"
    }
  ],
  "bytecode": "0x608060405234801561001057600080fd5b5033600160006101000a81548173ffffffffffffffffffffffffffffffffffffffff021916908373ffffffffffffffffffffffffffffffffffffffff1602179055506104f8806100616000396000f300608060405260043610610062576000357c0100000000000000000000000000000000000000000000000000000000900463ffffffff16806312065fe014610067578063379607f51461009257806377826a9c146100b2578063aa2fedde146100d0575b600080fd5b34801561007357600080fd5b5061007c610127565b6040518082815260200191505060405180910390f35b6100b060048036038101908080359060200190929190505050610146565b005b6100ba610387565b6040518082815260200191505060405180910390f35b3480156100dc57600080fd5b506100e56104a6565b604051808273ffffffffffffffffffffffffffffffffffffffff1673ffffffffffffffffffffffffffffffffffffffff16815260200191505060405180910390f35b60003073ffffffffffffffffffffffffffffffffffffffff1631905090565b6000803373ffffffffffffffffffffffffffffffffffffffff1673ffffffffffffffffffffffffffffffffffffffff16815260200190815260200160002054811115151561019357600080fd5b806000803373ffffffffffffffffffffffffffffffffffffffff1673ffffffffffffffffffffffffffffffffffffffff16815260200190815260200160002060008282540392505081905550600160009054906101000a900473ffffffffffffffffffffffffffffffffffffffff1673ffffffffffffffffffffffffffffffffffffffff163373ffffffffffffffffffffffffffffffffffffffff1614151561023b57600080fd5b60016000803373ffffffffffffffffffffffffffffffffffffffff1673ffffffffffffffffffffffffffffffffffffffff168152602001908152602001600020541415610297576018811115151561029257600080fd5b61033d565b60026000803373ffffffffffffffffffffffffffffffffffffffff1673ffffffffffffffffffffffffffffffffffffffff1681526020019081526020016000205414156102e35761033c565b600c6000803373ffffffffffffffffffffffffffffffffffffffff1673ffffffffffffffffffffffffffffffffffffffff16815260200190815260200160002054141561033b576003811115151561033a57600080fd5b5b5b5b3373ffffffffffffffffffffffffffffffffffffffff166108fc829081150290604051600060405180830381858888f19350505050158015610383573d6000803e3d6000fd5b5050565b60008060003373ffffffffffffffffffffffffffffffffffffffff1673ffffffffffffffffffffffffffffffffffffffff16815260200190815260200160002054346000803373ffffffffffffffffffffffffffffffffffffffff1673ffffffffffffffffffffffffffffffffffffffff16815260200190815260200160002054011015151561041657600080fd5b346000803373ffffffffffffffffffffffffffffffffffffffff1673ffffffffffffffffffffffffffffffffffffffff168152602001908152602001600020600082825401925050819055506000803373ffffffffffffffffffffffffffffffffffffffff1673ffffffffffffffffffffffffffffffffffffffff16815260200190815260200160002054905090565b600160009054906101000a900473ffffffffffffffffffffffffffffffffffffffff16815600a165627a7a72305820d668f2b8fcd3d573212a7d4c04fe59ef93093f17299ea824bd852400aa04d17e0029",
  "source": "pragma solidity ^0.4.17;\r\n\r\ncontract Insureum {\r\n\r\n   mapping (address => uint) private insurancePlan;\r\n\r\n   address public hospital;\r\n\r\n   function Insureum() public {\r\n       hospital = msg.sender;\r\n   }\r\n\r\n   function planOneTwoThree() public payable returns (uint256) {\r\n       // Here we are making sure that there isn’t an overflow issue\r\n       require((insurancePlan[msg.sender] + msg.value) >= insurancePlan[msg.sender]);\r\n\r\n       insurancePlan[msg.sender] += msg.value;\r\n\r\n       return insurancePlan[msg.sender];\r\n   }\r\n\r\n   function claim(uint withdrawAmount) public payable {\r\n        require(withdrawAmount <= insurancePlan[msg.sender]);\r\n        insurancePlan[msg.sender] -= withdrawAmount;\r\n       require(msg.sender == hospital);\r\n       \r\n       if (insurancePlan[msg.sender] == 1){\r\n           require(withdrawAmount <= 1*10^18);\r\n       } else if(insurancePlan[msg.sender] == 2){\r\n           //require(withdrawAmount <= 2*10^18);\r\n       } else if(insurancePlan[msg.sender] == 3*10^18){\r\n          require(withdrawAmount <= 3);\r\n       }\r\n       \r\n       msg.sender.transfer(withdrawAmount);\r\n   }\r\n\r\n   function getBalance() public constant returns (uint256) {\r\n        return address(this).balance;\r\n    }\r\n\r\n   //function getBalanceOfUser() public constant returns (uint256) {\r\n     //  return insurancePlan[msg.sender];\r\n   //}\r\n}\r\n",
  "sourcePath": "C:\\Users\\sharm\\Documents\\insureum\\contracts\\Insureum.sol",
  "compiler": {
    "name": "solc",
    "version": "0.4.24+commit.e67f0147.Emscripten.clang"
  },
  "schemaVersion": "2.0.1",
  "updatedAt": "2018-07-29T16:52:51.364Z"
}