{
  "contractName": "Insureum",
  "abi": [
    {
      "inputs": [],
      "payable": false,
      "stateMutability": "nonpayable",
      "type": "constructor"
    },
    {
      "constant": false,
      "inputs": [],
      "name": "planOneTwoThree",
      "outputs": [
        {
          "name": "",
          "type": "uint256"
        }
      ],
      "payable": true,
      "stateMutability": "payable",
      "type": "function"
    },
    {
      "constant": false,
      "inputs": [
        {
          "name": "",
          "type": "address"
        },
        {
          "name": "withdrawAmount",
          "type": "uint256"
        }
      ],
      "name": "claim",
      "outputs": [],
      "payable": false,
      "stateMutability": "nonpayable",
      "type": "function"
    },
    {
      "constant": true,
      "inputs": [],
      "name": "getBalance",
      "outputs": [
        {
          "name": "",
          "type": "uint256"
        }
      ],
      "payable": false,
      "stateMutability": "view",
      "type": "function"
    },
    {
      "constant": true,
      "inputs": [],
      "name": "getBalanceOfUser",
      "outputs": [
        {
          "name": "",
          "type": "uint256"
        }
      ],
      "payable": false,
      "stateMutability": "view",
      "type": "function"
    }
  ],
  "bytecode": "0x608060405234801561001057600080fd5b506102dc806100206000396000f300608060405260043610610062576000357c0100000000000000000000000000000000000000000000000000000000900463ffffffff16806312065fe01461006757806377826a9c1461009257806379982de4146100b0578063aad3ec96146100db575b600080fd5b34801561007357600080fd5b5061007c610128565b6040518082815260200191505060405180910390f35b61009a610147565b6040518082815260200191505060405180910390f35b3480156100bc57600080fd5b506100c5610266565b6040518082815260200191505060405180910390f35b3480156100e757600080fd5b50610126600480360381019080803573ffffffffffffffffffffffffffffffffffffffff169060200190929190803590602001909291905050506102ac565b005b60003073ffffffffffffffffffffffffffffffffffffffff1631905090565b60008060003373ffffffffffffffffffffffffffffffffffffffff1673ffffffffffffffffffffffffffffffffffffffff16815260200190815260200160002054346000803373ffffffffffffffffffffffffffffffffffffffff1673ffffffffffffffffffffffffffffffffffffffff1681526020019081526020016000205401101515156101d657600080fd5b346000803373ffffffffffffffffffffffffffffffffffffffff1673ffffffffffffffffffffffffffffffffffffffff168152602001908152602001600020600082825401925050819055506000803373ffffffffffffffffffffffffffffffffffffffff1673ffffffffffffffffffffffffffffffffffffffff16815260200190815260200160002054905090565b60008060003373ffffffffffffffffffffffffffffffffffffffff1673ffffffffffffffffffffffffffffffffffffffff16815260200190815260200160002054905090565b50505600a165627a7a7230582014046f86b273877e1b44914454e67f6dcf1849db7c6ab32103adf5e09811ba890029",
  "source": "pragma solidity ^0.4.17;\n\ncontract Insureum {\n\n   mapping (address => uint) private insurancePlan;\n     \n\n   function Insureum() public {\n      \n   }\n   function planOneTwoThree() public payable returns (uint256) {\n       // Here we are making sure that there isn’t an overflow issue\n       require((insurancePlan[msg.sender] + msg.value) >= insurancePlan[msg.sender]);\n\n       insurancePlan[msg.sender] += msg.value;\n\n       return insurancePlan[msg.sender];\n       \n   }\n\n   function claim(address , uint256 withdrawAmount) public {\n\n   }\n\n   function getBalance() public constant returns (uint256) {\n        return address(this).balance;\n    }\n\n   function getBalanceOfUser() public constant returns (uint256) {\n       return insurancePlan[msg.sender];\n   }\n}\n",
  "sourcePath": "/Users/nikolai/Desktop/stuff/Produce/project_hackathons/Hackathon22 angelhack/insureum/contracts/Insureum.sol",
  "compiler": {
    "name": "solc",
    "version": "0.4.24+commit.e67f0147.Emscripten.clang"
  },
  "schemaVersion": "2.0.1",
  "updatedAt": "2018-07-29T19:59:30.378Z"
}