{
  "contractName": "Insureum",
  "abi": [
    {
      "inputs": [
        {
          "name": "_seller",
          "type": "address"
        },
        {
          "name": "_arbiter",
          "type": "address"
        }
      ],
      "payable": false,
      "stateMutability": "nonpayable",
      "type": "constructor"
    },
    {
      "constant": false,
      "inputs": [],
      "name": "planOneTwoThree",
      "outputs": [],
      "payable": true,
      "stateMutability": "payable",
      "type": "function"
    },
    {
      "constant": false,
      "inputs": [
        {
          "name": "amount",
          "type": "uint256"
        }
      ],
      "name": "payoutToHospital",
      "outputs": [],
      "payable": false,
      "stateMutability": "nonpayable",
      "type": "function"
    },
    {
      "constant": true,
      "inputs": [],
      "name": "getBalance",
      "outputs": [
        {
          "name": "",
          "type": "uint256"
        }
      ],
      "payable": false,
      "stateMutability": "view",
      "type": "function"
    },
    {
      "constant": true,
      "inputs": [
        {
          "name": "",
          "type": "address"
        }
      ],
      "name": "getBalanceOfUser",
      "outputs": [
        {
          "name": "",
          "type": "uint256"
        }
      ],
      "payable": false,
      "stateMutability": "view",
      "type": "function"
    }
  ],
  "bytecode": "0x608060405234801561001057600080fd5b50604051604080610226833981018060405281019080805190602001909291908051906020019092919050505050506101d88061004e6000396000f300608060405260043610610062576000357c0100000000000000000000000000000000000000000000000000000000900463ffffffff16806312065fe01461006757806345909a6f1461009257806377826a9c146100e9578063d326822c146100f3575b600080fd5b34801561007357600080fd5b5061007c610120565b6040518082815260200191505060405180910390f35b34801561009e57600080fd5b506100d3600480360381019080803573ffffffffffffffffffffffffffffffffffffffff16906020019092919050505061013f565b6040518082815260200191505060405180910390f35b6100f1610160565b005b3480156100ff57600080fd5b5061011e60048036038101908080359060200190929190505050610162565b005b60003073ffffffffffffffffffffffffffffffffffffffff1631905090565b60003073ffffffffffffffffffffffffffffffffffffffff16319050919050565b565b3373ffffffffffffffffffffffffffffffffffffffff166108fc829081150290604051600060405180830381858888f193505050501580156101a8573d6000803e3d6000fd5b50505600a165627a7a723058209279219edf678135d42415a816b5f7e57a3fc5e091b2729b24578fce5992cfd50029",
  "source": "pragma solidity ^0.4.17;\n\ncontract Insureum {\n\n    mapping (address => uint) private balances;\n\n    function Insureum(address _seller, address _arbiter) public {\n\n    }\n\n    function planOneTwoThree() public payable {\n      \n    }\n\n    function payoutToHospital(uint amount) public {\n        msg.sender.transfer(amount);\n    }\n\n    function getBalance() public constant returns (uint) {\n        return this.balance;\n    }\n\n    function getBalanceOfUser(address) public constant returns (uint) {\n        return this.balance;\n    }\n}",
  "sourcePath": "/Users/nikolai/Desktop/stuff/Produce/project_hackathons/Hackathon22 angelhack/insureum/contracts/Insureum.sol",
  "compiler": {
    "name": "solc",
    "version": "0.4.24+commit.e67f0147.Emscripten.clang"
  },
  "schemaVersion": "2.0.1",
  "updatedAt": "2018-07-29T04:54:02.933Z"
}