{
  "contractName": "Insureum",
  "abi": [
    {
      "constant": false,
      "inputs": [
        {
          "name": "_seller",
          "type": "address"
        },
        {
          "name": "_arbiter",
          "type": "address"
        }
      ],
      "name": "Purchase",
      "outputs": [],
      "payable": false,
      "stateMutability": "nonpayable",
      "type": "function"
    },
    {
      "constant": false,
      "inputs": [],
      "name": "planOneTwoThree",
      "outputs": [],
      "payable": true,
      "stateMutability": "payable",
      "type": "function"
    },
    {
      "constant": false,
      "inputs": [
        {
          "name": "amount",
          "type": "uint256"
        }
      ],
      "name": "payoutToHospital",
      "outputs": [],
      "payable": false,
      "stateMutability": "nonpayable",
      "type": "function"
    },
    {
      "constant": true,
      "inputs": [],
      "name": "getBalance",
      "outputs": [
        {
          "name": "",
          "type": "uint256"
        }
      ],
      "payable": false,
      "stateMutability": "view",
      "type": "function"
    },
    {
      "constant": true,
      "inputs": [
        {
          "name": "",
          "type": "address"
        }
      ],
      "name": "getBalanceOfUser",
      "outputs": [
        {
          "name": "",
          "type": "uint256"
        }
      ],
      "payable": false,
      "stateMutability": "view",
      "type": "function"
    }
  ],
  "bytecode": "0x608060405234801561001057600080fd5b5061024a806100206000396000f30060806040526004361061006d576000357c0100000000000000000000000000000000000000000000000000000000900463ffffffff16806312065fe01461007257806345909a6f1461009d57806377826a9c146100f4578063895ee30d146100fe578063d326822c14610161575b600080fd5b34801561007e57600080fd5b5061008761018e565b6040518082815260200191505060405180910390f35b3480156100a957600080fd5b506100de600480360381019080803573ffffffffffffffffffffffffffffffffffffffff1690602001909291905050506101ad565b6040518082815260200191505060405180910390f35b6100fc6101ce565b005b34801561010a57600080fd5b5061015f600480360381019080803573ffffffffffffffffffffffffffffffffffffffff169060200190929190803573ffffffffffffffffffffffffffffffffffffffff1690602001909291905050506101d0565b005b34801561016d57600080fd5b5061018c600480360381019080803590602001909291905050506101d4565b005b60003073ffffffffffffffffffffffffffffffffffffffff1631905090565b60003073ffffffffffffffffffffffffffffffffffffffff16319050919050565b565b5050565b3373ffffffffffffffffffffffffffffffffffffffff166108fc829081150290604051600060405180830381858888f1935050505015801561021a573d6000803e3d6000fd5b50505600a165627a7a72305820a061fe00a9f08d4948ada4a1f5288e1a358cbef828605d0656ed89aec74c438d0029",
  "source": "pragma solidity ^0.4.17;\n\ncontract Insureum {\n\n    // Events - publicize actions to external listeners\n    // event LogDepositMade(address accountAddress, uint amount);\n\n    function Purchase(address _seller, address _arbiter) public {\n\n    }\n\n    function planOneTwoThree() public payable {\n      \n    }\n\n    /// Confirm that you (the buyer) received the item.\n    /// This will release the locked ether.\n    function payoutToHospital(uint amount) public {\n        msg.sender.transfer(amount);\n    }\n\n    function getBalance() public constant returns (uint) {\n        return this.balance;\n    }\n\n    function getBalanceOfUser(address) public constant returns (uint) {\n        return this.balance;\n    }\n}",
  "sourcePath": "/Users/nikolai/Desktop/stuff/Produce/project_hackathons/Hackathon22 angelhack/insureum/contracts/Insureum.sol",
  "compiler": {
    "name": "solc",
    "version": "0.4.24+commit.e67f0147.Emscripten.clang"
  },
  "schemaVersion": "2.0.1",
  "updatedAt": "2018-07-29T04:41:20.098Z"
}